S01100006865617274626561742E7372656363
S31520010000173101601301010B97C201009382028D02
S315200100101703FF5F130303FF9703FF5F938383FE9A
S315200100206359730003AE02002320C3019102110319
S31520010030C5BF9702FF5F938262FD17130160130309
S31520010040E30463D6620023A002009102DDBF312CB6
S3152001005001A01C42BE9603C6060019CA37370110F5
S3152001006085061C43E3CF07FE10C303C606006DFABF
S3152001007017B501000325C5678280854637370110EC
S31520010080B737011014C7D4C78280373701101C43F4
S31520010090E3CF07FE08C382808346050099CA373716
S315200100A0011005051C43E3CF07FE14C38346050053
S315200100B0EDFA82801306000397960100938686A5A2
S315200100C03737011085061C43E3CF07FE10C303C64D
S315200100D006006DFAF146179801001308E8A3373791
S315200100E00110F155B357D500BD8BC29703C6070042
S315200100F01C43E3CF07FE10C3F116E395B6FE8280BB
S31520010100B7370110D843634607002300E5000545AC
S31520010110828001458280411102C6B24737A7070076
S315200101201307F7116348F700B24785073EC6B24762
S31520010130E35CF7FE41018280B736011091069715DF
S3152001014001609385A5F5054509489C4263C00702D0
S315200101509841630DA70893F7F70F63010705373613
S315200101600110110611C71C42E3D707FE0145828003
S3152001017097180160938848F203A608001797010093
S31520010180130747523297034707006308F70A9387F5
S3152001019097FA93B7170023A0F80045BF9718016077
S315200101A09388C8EE03A7080037230080171E016035
S315200101B0032E4EEE130617001A9723A0C800230418
S315200101C0F700E314C6F9B727008037C7ADDED0C3E1
S315200101D01307F7EE2320E3009717016023A007EC0E
S315200101E09717016023AA07EA054582801716016041
S315200101F0130606EA1842971801609388A8E903A313
S315200102000800131E370093F7F70FB397C701B3E71B
S315200102106700050718C223A0F8001146E317C7F2A5
S31520010220FD17096763ECE7029717016023A807E624
S315200102309717016023A207E609BF050623A0C80078
S31520010240A947E314F6F085479CC19717016023A3BC
S3152001025007E49717016023AD07E2C5BD89479CC115
S315200102609717016023A407E2CDB53971854606DECD
S3152001027022DC26DA4AD84ED652D456D25AD05ECE6F
S3152001028062CC3737011014C7B7370110D4C713060C
S315200102902004979601009386668985061C43E3CF41
S315200102A007FE10C303C606006DFAB72700809C43DC
S315200102B0B7C4ADDE372A0080B7290080B7AA070068
S315200102C0179901001309C93E9384F4EE110AA10975
S315200102D0938AFA11130470064A8B638597121306C3
S315200102E07005979601009386668937370110850632
S315200102F01C43E3CF07FE10C303C606006DFA228511
S31520010300553B3546979601009386C68E37370110A1
S3152001031085061C43E3CF07FE10C303C606006DFA0C
S315200103205D2C2A8C630F0514014693050040312369
S31520010330AA8B63090516A2865A864C006285EF2090
S31520010340405C631F051C92455E85EF106070631645
S3152001035005221245179601001306468E9795010030
S315200103609385858E170700001307E7CE9796010020
S315200103709386468CEF10E17D179601001306068DB4
S31520010380DE852800EF109000631F05121306700505
S31520010390979601009386C6843737011085061C433C
S315200103A0E3CF07FE10C303C606006DFA37340110EA
S315200103B02245EF0010503DED02C6B24763C8FA0050
S315200103C0B24785073EC6B247E3DCFAFEB5336DD1A7
S315200103D013065005979601009386C682373701107A
S315200103E085061C43E3CF07FE10C303C606006DFA3C
S315200103F0EF10F10AB72700809C43130470064A8B3D
S31520010400E39F97EC13065005978601009386467461
S315200104103737011085061C43E3CF07FE10C303C6F9
S3152001042006006DFAB727008003240A004E8B23A00D
S31520010430070075B593065004178701001307C77B7C
S3152001044005071C40E3CF07FE14C083460700EDFADB
S315200104500347050009CB05051C40E3CF07FE18C05D
S31520010460034705006DFBB5461787010013078778FB
S3152001047005071C40E3CF07FE14C083460700EDFAAB
S3152001048025BF13065004978601009386E66F3737FA
S31520010490011085061C43E3CF07FE10C303C60600E1
S315200104A06DFA01A013065004978601009386866E85
S315200104B03737011085061C43E3CF07FE10C303C659
S315200104C006006DFA01A01306500497860100938653
S315200104D0E66F3737011085061C43E3CF07FE10C3AD
S315200104E003C606006DFA8346050099CA37370110FF
S315200104F005051C43E3CF07FE14C383460500EDFA29
S315200105003546978601009386E66E373701108506B4
S315200105101C43E3CF07FE10C303C606006DFA01A0F4
S3152001052013065004978601009386C6673737011054
S3152001053085061C43E3CF07FE10C303C606006DFAEA
S315200105408346050099CA3737011005051C43E3CFB9
S3152001055007FE14C383460500EDFA3546978601004A
S31520010560938646693737011085061C43E3CF07FE7C
S3152001057010C303C606006DFA01A013065004978620
S315200105800100938666633737011085061C43E3CF46
S3152001059007FE10C303C606006DFA8346050099CAF5
S315200105A03737011005051C43E3CF07FE14C38346E5
S315200105B00500EDFA3546978601009386A6633737FF
S315200105C0011085061C43E3CF07FE10C303C60600B0
S315200105D06DFA01A001A079711305000206D64ECE4F
S315200105E0EF10816E45C54AD052CC56CA22D426D2A6
S315200105F0AA89130A45000149954A85456800EF00F5
S31520010600315D2DE1B244B33720012384240103A4B3
S315200106100900239304002392F40001E481A0004001
S3152001062005CCA6852285EF00F15D75D92685EF10CB
S31520010630E170A284050923209A001379F90F110A82
S31520010640E31D59FB2254B25092540259624AD24AAE
S315200106504E85F2494561828003A4090080C023A00A
S315200106609900C9BF03A4090011C422850040EF10D7
S31520010670E16C65FC13858901EF1041534E85EF101E
S31520010680E16B225492540259624AD24AB2508149AC
S315200106904E85F24945618280411122C4004126C21C
S315200106A006C6AA8411C422850040EF10216965FC83
S315200106B02244B24013858401924441016F10014FB7
S315200106C005C9411122C4004126C206C6AA8411C405
S315200106D022850040EF10816665FC13858401EF10A9
S315200106E0E14C2244B2402685924441016F100165B6
S315200106F0828011C14CCD8280011122CC004126CAB3
S315200107004AC84EC606CE8441AA892E8901E43DA057
S3152001071000401DC0A6852285EF00D14E75D92685BC
S31520010720EF10C161A284F240624423209900B249AC
S31520010730D24442490561828003A4090080C0F24067
S31520010740624423A0990023209900B249D244424908
S3152001075005618280011122CC004106CE21C026CA24
S315200107604AC84EC6AE84AA89014921A0228985C7D5
S315200107703E842285EF10C1451C40E36995FE630541
S315200107800902F240228562442320F900D2444249DB
S31520010790B24905618280D2444249B2490144F240BC
S315200107A02285624405618280F2402285624423A02B
S315200107B0F900D2444249B24905618280011122CC15
S315200107C0004D06CE21C026CA4AC84EC6AE84AA8985
S315200107D0014921A0228985C73E842285EF10413F08
S315200107E01C40E36995FE63050902F24022856244B5
S315200107F02320F900D2444249B24905618280D2447C
S315200108004249B2490144F24022856244056182800F
S31520010810F2402285624423ACF900D2444249B249CE
S315200108200561828091C9AE8723A207003E879C433A
S31520010830E5FF1C4D1CC30CCD8280011152C42A8AAE
S315200108400565130545D94AC84EC606CE22CC2E8942
S31520010850B289EF1061472DC12A840565130545C765
S3152001086071468145229526CAEF1071358564A29479
S31520010870978701009387872D23A6F4C823A844C30D
S3152001088023AE34C513050901EF10014423A6A4C4E0
S3152001089005C11359290023A4A4C423AA24C5D244DB
S315200108A0F240228562444249B249224A0561828048
S315200108B02285EF10A148D2440144DDB711C58567D1
S315200108C03E950325C5C582800145828085674111F4
S315200108D03E9526C24AC0832745C406C622C42E8910
S315200108E0B28431A0E05B0299AA8709E5A287A68591
S315200108F03E85EDFBB2402244924402493E854101A8
S315200109008280411106C6EF00D152B2400145410114
S31520010910828085674111AA9722C403A447C426C2AF
S3152001092006C6AA8411C422856058EF00915065FC41
S315200109308567A69703A647C383A607C3B28709CAB5
S3152001094023A207003E879C43E5FF9C4E1CC390CE05
S315200109508567A69703A687C311CAB28723A2070074
S315200109603E879C43E5FF9C4E1CC390CE8567BE9473
S3152001097003A5C4C4EF10813C03A504C623A604C461
S31520010980EF10C13BB240224423A004C69244410148
S31520010990828019CD411106C622C42A84EF10511E28
S315200109A02285853F22852244B24041016F100139BB
S315200109B0828083C7C506011126CA06CE97B40100D7
S315200109C083A404D3C1E7FC4D22CC4EC6B0512A8460
S315200109D0D9C3056722972324F7C611E2416683A965
S315200109E08505056722972326C7C663E8370752C4BC
S315200109F0C167330A360363EF3707832707C74AC818
S31520010A0081C763F347013E8A8567A29783A747C6B5
S31520010A109305CA003306F60221EE056922990325BC
S31520010A2009C6EF10C13339CD032749C5832789C4A8
S31520010A30232239C72320A9C60A072324450100C139
S31520010A4042496244B249224ABA975CC1F24026859C
S31520010A50D24405618280C167ADBF6244F24097B43A
S31520010A60010083A464C1B2492685D24405618280EE
S31520010A70310665B76244B249224A978401009384BC
S31520010A80A41DE9B762444249B249224A97B40100FA
S31520010A9083A4C4C565BF8567AA9703A787C6011125
S31520010AA006CE4EC66360B70803A6C7C622CC52C47B
S31520010AB04167330AB6022E846361B70883A707C745
S31520010AC026CA4AC8AA8499C363E747078567A697B2
S31520010AD083A747C69305CA003306F60211C231061B
S31520010AE005692699032509C697B9010083A949C035
S31520010AF0EF10E12631C9032749C5832789C423225B
S31520010B0089C62320A9C60A072324450104C16244B4
S31520010B10D2444249224ABA975CC1F2404E85B24933
S31520010B2005618280F24097B9010083A9E9B44E8517
S31520010B30B249056182803E8A51BF6244224A978921
S31520010B40010093896911D1BF6244D2444249224AA4
S31520010B5097B9010083A989B9C9B7185197B6010078
S31520010B6083A606B929CB411122C426C24AC006C68C
S31520010B702A890144814431A085041304440463F580
S31520010B80E40283278902338587005C45F5D75C55C6
S31520010B90E5F7EF00D102AA8601E9032709028504B8
S31520010BA013044404E3EFE4FCB24022449244024994
S31520010BB036854101828036858280411122C406C64E
S31520010BC02A8417B501000325A5B239C458546345B3
S31520010BD0070426C2931747000454BA978A07BE947E
S31520010BE0DC549DCF9C54DC43B1E39C40C85405673B
S31520010BF09C43832805004454BA9703A607C683A5B8
S31520010C0087C47D5758D4814701488146014711053C
S31520010C10829819C944D49244B24022444101828027
S31520010C202685EF00C1795DDD9244FDB7B2402244AD
S31520010C30924417B50100032565A341018280185D01
S31520010C40011106CE22CC31CF26CA4AC84EC62A89E0
S31520010C50AE8981440324C90393975400CE853E94DB
S31520010C60084811C5EF10A17639C1032789038504E8
S31520010C70E3E2E4FE05C781440324C90393975400A4
S31520010C803E941C4089CB4840CE8511C5EF10217476
S31520010C9019CD032789038504E3E0E4FED2444249C2
S31520010CA0B2490144F2402285624405618280F240C4
S31520010CB022856244D2444249B2490561828021C1DA
S31520010CC08347C5010D476389E7046362F702054738
S31520010CD0638CE7020947639FE700104554459CC191
S31520010CE090C5D4C517B50100032585A0828011477B
S31520010CF0E385E7FE17B501000325859C828017B59C
S31520010D00010003252596828018459CC117B501004F
S31520010D100325059E98C5828018459CC117B50100FB
S31520010D200325059D98C5828039CD8347E5019DCF51
S31520010D3098418347C5016396E7020D47638DE70412
S31520010D40636BF70205476385E70409476398E70262
S31520010D509845DC4518C55CC517B50100032545999D
S31520010D60828017B501000325A58F828017B5010062
S31520010D700325C58E82801147E38CE7FC17B5010058
S31520010D8003250594828017B501000325A58D828050
S31520010D909C451CC5D1B79C451CC57DBF01C50345D6
S31520010DA0C5018280014582801C51011106CE22CCCB
S31520010DB0D1CB26CA4AC84EC652C4AA892E8A814494
S31520010DC0014903A48902D2852694085011C5EF1042
S31520010DD001603DCD83A70902050993844404E3629A
S31520010DE0F9FE56C25AC0A9CB814A014B31A0050B47
S31520010DF0938A4A046372FB0403A4890256945840D9
S31520010E007DF718446DF70357440275D393044401C3
S31520010E1001498840D28511C5EF10615B39C103575D
S31520010E20440205099104E346E9FE83A70902050B5D
S31520010E30938A4A04E362FBFCD2444249B249224ADC
S31520010E40924A024B0144F240228562440561828026
S31520010E50F24022856244D2444249B249224A05617E
S31520010E608280F24022856244D2444249B249224AD2
S31520010E70924A024B05618280BC496378F602FC45A1
S31520010E800A064111B29726C2844322C406C62A8481
S31520010E9017B501000325C58599C0DC5481CF04C04F
S31520010EA0B2402244924441018280178501001305F4
S31520010EB0E5DC82802685EF00815075D1D5B719C52D
S31520010EC01C55014589C703D567008280014582806B
S31520010ED019C51C55014589C703D54700828001459F
S31520010EE0828009C91C55014589C703D7670063E577
S31520010EF0E50082800145828003D74700AE97BA97E5
S31520010F0003C58700828009C91C55014589C703D7B6
S31520010F10470063E5E500828001458280AE9703C5DF
S31520010F208700828018411C558566184383D7470060
S31520010F303697032587C48E073E9582805C5563814B
S31520010F40071679714ECEAA89084122D426D25C553C
S31520010F505AC85EC606D683A48902032B05002E84B1
S31520010F6097AB010083ABCB7863D20710639F0B123B
S31520010F7003A7090083A7890283D66400184305665F
S31520010F804AD0329783D74700032987C4ADC603D7F2
S31520010F90440056CA8507938A8400130687008E0764
S31520010FA0BA9A52CC62C466C26AC0B2943E99B69AC3
S31520010FB00D4A114D054C894C83C70400638E4709A0
S31520010FC06369FA0613077400937687FF6385870D95
S31520010FD06391970B9842DC428504232CE9FE232E4C
S31520010FE0F9FE138486002109E39854FD624AD24A08
S31520010FF0224C924C024D03A5C9028567DA978328B4
S31520011000050003A607C683A587C4014881478146F3
S3152001101001471105829841CDB250225485673E9BE6
S31520011020232C7BC502599254F249424BB24B45615E
S3152001103082801D046198639EA70318405C402104A9
S31520011040232CE9FE232EF9FE85042109E38054FB96
S3152001105083C70400E39647F71D04619808404C4076
S315200110602104EF709113232CA9FEF9BFB936AA8B5F
S31520011070F5BD0259624AD24A224C924C024D17853D
S315200110800100130565C1B25022549254F249424BD4
S31520011090B24B456182801C401104232CF9FE6DB7A9
S315200110A017A501000325855D82805E85E9BFCE8B6C
S315200110B0A5B73971130341022ED29A8506CE32D4B1
S315200110C036D63AD83EDA42DC46DE1AC6853DF240AD
S315200110D021618280797122D4005506D68357640016
S315200110E0638AB70017A5010003254558B25022543B
S315200110F0456182805C5526D2AA84E5C708414AD03B
S315200111004ECE5C558329050017A901000329495EA6
S3152001111063D2070E6317090E98409C5483556400C9
S315200111201843856683D747003697832687C4B9C96E
S3152001113003554400850713088400930885001397F7
S3152001114037002A98B30714012E98BA968D45114E69
S315200111500545894803C70700630BB70663ECE50419
S31520011160630CA706631A1705184203230700832376
S31520011170470023AC66FE23AE76FE8507A10611063F
S31520011180E39A07FDC8548567CE978328050003A6F1
S3152001119007C683A587C401488147814601471105B2
S315200111A0829831CD8567BE9923AC29C592540259BF
S315200111B0F2492DBFE30AC7FBB25022549254025979
S315200111C0F24917850100130525AD45618280184234
S315200111D0184323ACE6FE55B71842184323ACE6FE66
S315200111E069BFB2502254925417A50100032505491F
S315200111F04561828032C6D13232462A8921BF26896B
S3152001120055B74A8592540259F249CDB5797126D2FC
S31520011210045506D683D76400638AB70017A5010053
S315200112200325C544B2509254456182805C554AD00B
S315200112302A8963890712084122D452CC5C555EC69D
S315200112403284832B050017AA0100032A6A4A63D434
S31520011250071263180A12032709008327890283D6F6
S3152001126064001843856566C22E9783D74700832C71
S3152001127087C4B5C285078E074ECE56CA5AC862C4E0
S315200112806AC0BE9C81490D4D114C854A094B03D735
S315200112904400B3873401BA9783C787006383A709BC
S315200112A06366FD06294681456388570B6394670962
S315200112B00840EF10C15E23ACACFE23AEBCFE83D743
S315200112C064008509A10C1104E3E3F9FCF249D24A31
S315200112D0424B224C024D0325C9028567DE9783289E
S315200112E0050003A607C683A587C401488147814611
S315200112F001471105829841C58567BE9B23AC4BC525
S3152001130022540259624AB24B924C29BF81456393BA
S3152001131087030840EF10A11123ACACFE23AEBCFE1F
S3152001132079BF08408145EF108110EF70016723AC2A
S31520011330ACFE71B72254B2500259F249624AD24ADE
S31520011340424BB24B224C924C024D925417850100CE
S3152001135013058594456182800840EF10A14423AC92
S31520011360ACFEB1BFB2500259925417A50100032514
S31520011370E53045618280EFF05F842A8AD9BD4A8AA9
S31520011380A5BF528522540259624AB24B61BD1C55F2
S315200113902A8783D647006387B60017A50100032550
S315200113A0E52C82800C4105681785010013054590BF
S315200113B08C41C29503A885C56303E800828083A575
S315200113C085C4A1C2A107A105BE960D45914E05432F
S315200113D0094E03C707006308A7046369E502630E84
S315200113E067026317C70303A885FF83A8C5FF1842B1
S315200113F023200701232217018507A1051106E39A58
S31520011400D7FC17A501000325A52E8280E30DD7FD64
S31520011410178501001305058B828003A885FF1842D5
S3152001142023200701D1BF03A885FF184223200701E6
S31520011430E1B71C41984385673E97832787C5638714
S31520011440A700178501001305A58682809C57832650
S3152001145087C403D5470031C1A107A10691053E9551
S315200114600D46914E0543094E03C707006303C70482
S31520011470636AE602630667046318C70303A886FF47
S3152001148083A8C6FF03A7C5FF23200701232217012F
S315200114908507A1069105E399A7FC17A50100032558
S315200114A025258280E30CD7FD177501001305C57E1E
S315200114B0828003A886FF03A7C5FF23200701C9BF92
S315200114C003A886FF03A7C5FF23200701D1B73971DA
S315200114D0130341022ED29A8506CE32D436D63AD875
S315200114E03EDA42DC46DE1AC6A937F2402161828005
S315200114F0A9C5411126C2AA842E8522C406C62E84D8
S31520011500EF00016D954763FEA7008567938747C363
S31520011510A2852244B2403385F400924441016F00F2
S31520011520A1728567938787C3A2852244B2403385FA
S31520011530F400924441016F00217182808567011177
S31520011540AA9722CC03A447C326CA4EC606CE4AC8AA
S31520011550AA89AE841DCC014921A022899DCB3E8436
S315200115602285EF00E1661C40E36995FE630B0906BF
S315200115702320F9008567BE9983A709C4850723A07F
S31520011580F9C4F24022856244D2444249B2490561F6
S3152001159082808567CE9752C403AA07C303248A0192
S315200115A00DC8014921A022898DC73E842285EF00DD
S315200115B021621C40E36995FE630A09022320F90092
S315200115C08567CE9703A7C7C3224A050723AEE7C27D
S315200115D055B7A6854E85EF0001582A8475F1224A12
S315200115E04DB705674E97232AF7C269B7232CFA0010
S315200115F0C1BF130101812324817DFD77056C23263B
S31520011600117E2324817E2322917E2320217F232E56
S31520011610317D232C417D232A517D2328617D23265B
S31520011620717D9387C726130101A1328A13060CDA2D
S315200116303E961C08B29705662A84130646D93E852E
S31520011640AE8A81453689BA893EC6EF005157032BAA
S315200116500400856403270900B3079B0003A607C37B
S3152001166083A647C583AB87C4B247040899453E85FF
S315200116701CC09307CCC3A69790C393070CC6A69705
S3152001168094C393074CC5A69723A07701FD572ACE6D
S3152001169022D03AD24ED43AD63EDE4D35AAC87DC1A5
S315200116A09307CCC3A6979C4313172A00BA97C44322
S315200116B0EF008158AA893245A6850946EFF00061D7
S315200116C0AA8471C5056AFD7713070ADA3E971C08B5
S315200116D0BA9783A9072A3EC6638D09024E85EF0074
S315200116E0214F93070AC515478A976365A700930774
S315200116F04AC58A973E85CE85EF0001550567930732
S31520011700C7C41408B6979C431307C7C43697FD1759
S315200117101CC385677D751305C526138707DA14084B
S315200117202A973E8A938787C53305D700B69723A084
S315200117300700EFF00F9EFD7993070ADACE97180876
S31520011740BA973EC683A747272320640126852320EF
S31520011750F9001301015F8320C17E0324817E832446
S31520011760417E0329017E8329C17D032A817D832A26
S31520011770417D032B017D832BC17C032C817C1301AD
S31520011780017F828097A4010083A444F059B785671D
S31520011790938707C61408B697035701069C43637DB2
S315200117A0F70283A80900814701488146014701467E
S315200117B0DE8513854900829811F55285EF00417126
S315200117C091476302F50203A70B0083A74B0023A0D1
S315200117D0EA0023A2FA00FDB597A7010083A747E5F2
S315200117E0E9D3BE84C5B583A70B0023A0FA00D9BDD2
S315200117F00328850317A60100032686EF630608043E
S31520011800011122CC26CA06CEAA840144DC5C131718
S3152001181054007400BA97D84B93858700268501CF4B
S3152001182003A8870103C6C7013AC64297D9332A8638
S3152001183011E503A884030504E36A04FDF24062442A
S31520011840D244328505618280328582801C4179713C
S3152001185026D206D697A4010083A484E9C1C39C5944
S315200118604AD02E89C9C74ECE52CC56CA22D42A8AEC
S315200118708149814A3DA0A2471385C70063CB07044E
S3152001188003270A0010483A951847B2976363F7046D
S315200118904C40850AD109EF00D12E8327090363F035
S315200118A0FA0203244903740005464E941C40184449
S315200118B02C004A853E973EC62D3BAA844DDD2254F7
S315200118C00259F249624AD24AB2502685925445615A
S315200118D082809774010093842440D5B7B2509774BF
S315200118E001009384244126859254456182800259C0
S315200118F0E1BF78413C41397122DC26DA06DE3AC65F
S3152001190024452A8417A50100032585DEDDC34AD88F
S31520011910014926866C000808EF00510871E552D46A
S31520011920424A631A0A102687740005464C08228506
S31520011930C93169E14ED6D24963C1090C26866C00AC
S315200119402808EF00B10571E156D2E24AB79798000F
S3152001195093870768CE9A63EE570B30486844636FC6
S31520011960560569C1E2478A098DCB26866C0068082F
S31520011970EF00D102050A15E9724714509317470063
S31520011980BA978A076375D7047844145462464E97EA
S31520011990B6971CC39109E36ACAFC3C4005096373E7
S315200119A0F90AB259225A925AADB74259B259225A14
S315200119B0925AF2506254D254216182800A0693953A
S315200119C02A00EF00C13968C42328540559BFF250B3
S315200119D062544259B259225A925AD2541775010069
S315200119E01305C52921618280F25062544259D2548D
S315200119F0216182804259225A6DBF4259B259225AD7
S31520011A00177501001305C5306DB74259B259225ACF
S31520011A104DB74259B259225A925A177501001305E8
S31520011A20253041BF4259B259225A925A17A501006F
S31520011A300325C5CBBDBF4259225A1775010013058F
S31520011A40252F85BF4259B259225A925A014595B737
S31520011A509C41C1EB411183C7C50622C426C24AC097
S31520011A60AA8406C60565130505C684C13389A40063
S31520011A702E8417A501000325A5C78DCB39E922851B
S31520011A80853B21E9A2854A85D13321E522859535F4
S31520011A9029E18567BE9483A744C4B24002497CD814
S31520011AA023A284C42244924441018280F44DB85138
S31520011AB091E2C1668567A69723A4D7C611E341673C
S31520011AC02C4C8567A69723A6E7C62685EFE0BFFCA3
S31520011AD075B7B240232004002244924402494101B1
S31520011AE0828017A501000325A5BC82809945B9B43A
S31520011AF0A9C5411122C42A842E8526C206C6AE84D2
S31520011B00EF00010D954763F5A7020565130545C34A
S31520011B102295A685EF00411385673E94832704C449
S31520011B20B2409244FD172320F4C42244410182800D
S31520011B300565130585C32295E9BF8280797122CC7B
S31520011B4006CE46D62A8495CD0565130505C9856831
S31520011B50AE982E951303C10223ACB8C623AEC8C6D0
S31520011B6023A0D8C823AA88C623A2E8C823A4F8C8D4
S31520011B7023A6A8C89A864286930500101AC6EF00A6
S31520011B807166F24022856244456182808567011132
S31520011B90AE9722CC03A447C452C456C206CE2A8A83
S31520011BA0977A0100938A8A1B25C44AC84EC626CA3B
S31520011BB0AE89328997AA010083AA8AB32285CA856A
S31520011BC06058EFF06F9EAA8415E96DF88567BE9976
S31520011BD003A649C4CA8817780100130868190C425C
S31520011BE09307102F1777010013070719814617A5A9
S31520011BF001000325A5AB9937AA8A19A0405515C01E
S31520011C0013B41A0033048040658CD2444249B24948
S31520011C1023208A00F2406244224A5685924A05616F
S31520011C208280EFF0C079AA8A6DF126844249D24496
S31520011C30B249F9BF2DC1411122C405642A94032654
S31520011C4044C8032E44C7032384C78328C4C7032853
S31520011C5004C8832684C80327C4C8856706C6938714
S31520011C6047C790C923A0C50123A2650023A4150156
S31520011C7023A60501D4C998CD3E9571468145EF002D
S31520011C80017497770100938767ECB2402326F4C845
S31520011C9022444101828082800DC9411122C42A84B5
S31520011CA00565130545C722957146814506C6EF0090
S31520011CB0017185673E9497770100938727E9B240A2
S31520011CC02326F4C8224441018280828019C985676E
S31520011CD03E95032505C61C4591C19CC199C3310575
S31520011CE082800145828085673E95832705C6884780
S31520011CF0828001458280797122D42EC62A846C0085
S31520011D00680806D6EF00814909E9F247185063EAC7
S31520011D10E700177501001305E507B2502254456106
S31520011D208280B2505CD4225445618280797122D45A
S31520011D302EC62A846C00680826D206D6B284EF0005
S31520011D40E14501ED7247B79798009387076863EBE2
S31520011D50E700B24724C438C07CC0B2502254925402
S31520011D60456182801775010013050505FDB71D71B3
S31520011D70A2CCA6CA8010CAC8CEC686CED2C4D6C226
S31520011D80DAC05EDE62DC2326B4FA2A899305C4FA18
S31520011D90130544FCB289232004FCEF002140AA84C8
S31520011DA00DE1032544FCB7470F0093870724977459
S31520011DB001009384240263E6A70029E1814405A05A
S31520011DC05281032504FCEFF0707703258901232036
S31520011DD004FCEFF0B076232C0900232A0900130115
S31520011DE004FAF64026856644D6444649B649264A2B
S31520011DF0964A064BF25B625C256182800A05EFF00A
S31520011E00B06C232CA900630F0516832744FC232AD3
S31520011E10F900CDD7814A4E869305C4FA1305D4FB22
S31520011E20EF00A1420A8AAA84631905140307D4FB89
S31520011E3081576310F7144E869305C4FA130584FC63
S31520011E40EF00C135AA84631A0512832784FC130780
S31520011E50803E6360F71413870701419B3301E140FC
S31520011E600A8B130CC4FC9DCF814B4E869305C4FA75
S31520011E701305F4FBEF00613DAA841305C4FC2A8CEB
S31520011E80A1F08305F4FBEFF0707FB3077B01AA84F1
S31520011E90850B1DF58346C4FC032784FC2380D700CC
S31520011EA0E3E5EBFC4E869305C4FA6285EF00012F2C
S31520011EB0AA8461E58327C4FC832584FCBE9563EA55
S31520011EC0F50C9307803E63E6B70C130504FCEFF08F
S31520011ED02050AA845DE10325C4FC032684FC032744
S31520011EE004FC93160501C18293150601CD8E54C3B8
S31520011EF021C5814B4E869305C4FA1305E4FBEF00F9
S31520011F00C134AA841305F4FBE39C04EA8305E4FBAC
S31520011F10EFF0D076AA84E31505EA032704FC83466D
S31520011F20F4FBB30777012384D7000325C4FC850B73
S31520011F30E3E2ABFC032684FC21073A95DA85EF0020
S31520011F40414403254900930504FCEFE0EFFA83277A
S31520011F50890113972A00850ABA97032704FC98C397
S31520011F60232004FC832744FC5281E3E6FAEA8144D8
S31520011F70BDB59794010083A4E4765281E39304E4EA
S31520011F808144B1BD9794010083A44476E39B04E286
S31520011F90C5BF9794010083A424725281C5B7797174
S31520011FA026D22EC6AA846C0028084AD006D63289A3
S31520011FB0EF00C11EAA8731E56247B7470F00938715
S31520011FC0072463EDE7048C502685BA95EFF0407718
S31520011FD039E9E24722D401449DC34A866C00680848
S31520011FE0EF00C11BAA870146268595E3F245050424
S31520011FF0EFF0A07AAA8701EDE247E360F4FE2254CE
S315200120008147B250925402593E85456182802254BD
S31520012010B250925402593E854561828097770100DC
S31520012020938747DCF9BFAA87E9BF39714ED62EC6F9
S31520012030AA896C00280822DC26DA06DEB28402CAC6
S31520012040EF00C1152A84631005126247E167938761
S31520012050076A63E4E7124AD801496306071252D494
S315200120600D4A26866C004808EF0061242A8451ED2A
S3152001207026866C0013053101EFF0B0742A8451E5F0
S3152001208026866C006808EF0061112A843DED83479E
S315200120903101B9EBD247724603A709023E85637F18
S315200120A0E60A83A689021317460032970A0736974E
S315200120B0835647020946636ED600138646000A06F2
S315200120C085062312D702B306C700DCC21CD302CA77
S315200120D00145EFF0B046E24702CA0509E363F9F884
S315200120E04259225A014535A0638E47030947638E1B
S315200120F0E7040547638BE70652450509EFF01044CF
S31520012100E24702CAE36FF9F4E1BFD2474259225AA4
S315200121103E85EFF0B042F25022856254D254B25934
S3152001212021618280F24703A7890363F8E70256D229
S3152001213083AAC9039607BE9A03A50A01EFF01040A8
S31520012140D24723A8FA00925A59B703A50907EFF0F7
S31520012150F03ED24723A8F9069DBFD2471794010026
S315200121600324445865B752456DB703A54905EFF0D9
S31520012170F03CD24723AAF90499BF524517740100AE
S31520012180130484C779B75245425961B7397122DCA4
S31520012190AE872A846C0028084AD806DE3EC63289D4
S315200121A0EFF0D07F35E51850504CE2469777010085
S315200121B09387C7C5118F6317D70451CB26DA3247C8
S315200121C04ED681442DA0F247324791CF3E973AC64B
S315200121D06365E9064C4CA695EFF040683247232605
S315200121E0350100C118C9E247850463FAF4024A861B
S315200121F06C006808BA89EFF0707AAA872285E1D740
S31520012200D254B259F250625442593E85216182809C
S31520012210F2506254AA8742593E8521618280D25466
S31520012220B25963042703F25062549797010083A79A
S31520012230A74942593E85216182809797010083A74C
S315200122406748D254B259DDFFE9BF814765BF32479E
S31520012250C9BF179501000325A5498280797126D228
S31520012260AA841305B10022D44AD04ECE06D62E8991
S31520012270B289EFF0B0792A8415ED4E86CA85268576
S31520012280EFF0D0712A841DE58347B10023A2040013
S3152001229013F7170005EB23A40400A18B81CF4E86EB
S315200122A0CA856800EFF0906F05E932478547B397F5
S315200122B0E7009CC4B2502285225492540259F24915
S315200122C0456182804E86CA8513854400EFF0106DE4
S315200122D001E58347B100C1B72A84E9BF5D71CAC050
S315200122E02EC62A896C000810A6C286C6A2C44EDE56
S315200122F0B28402D402D6EFF0706A631E05168255A7
S31520012300E1679387076A63ECB7164A85EFF0404386
S3152001231063130516825752DC93098102014AB9C714
S3152001232056DA894A26866C004E85EFF050782A8443
S3152001233021ED26866C006810EFF070772A8429E556
S3152001234026866C006808EFF0D0472A8415ED83476E
S31520012350C1016385570963EEFA00A1C74E85EFF0E7
S3152001236040128257050AE36FFAFAD25A625A014499
S3152001237031A80D47639EE70826866C001305D10117
S31520012380EFF0B06C2A8441CD625AD25A4E85EFF0D5
S31520012390400FB6402285264496440649F25961618A
S315200123A0828026866C004810EFF0505F2A8469FDF2
S315200123B092554E864A85EFF0403E2A8471F5832751
S315200123C0C9014E8502D48507232EF90002D6EFF0E6
S315200123D0400B8257050AE367FAF441BF26866C0053
S315200123E013058905A53D2A8445F185472306F90666
S315200123F0A2574E8502D42322F906B25702D6050AE0
S315200124002324F906EFF0E0078257E36DFAF0B1BF16
S31520012410625AD25A179401000324C42C85BF83051E
S31520012420D1011305E101EFF070252A8431FD2686BD
S315200124306C001305F101EFF0705D2A8431F58346B6
S31520012440F1010346E1010547B336D0004C104A8518
S31520012450EFF020282A840DF992573257A2564E853D
S31520012460D8C394C302D402D6EFF0A0018257050A3D
S31520012470E36AFAEADDBD2A849309810201BF177452
S3152001248001001304649B9309810209B7797126D24D
S315200124902EC6AA846C00680822D44AD006D6328970
S315200124A0EFF0D04F2A8411E972478547631EF70062
S315200124B04A866C00138584055533B25022852254F1
S315200124C09254025945618280179401000324041F06
S315200124D0EDB713010181232A517D856A2326117EB9
S315200124E02324817E2322917E2320217F232E317D49
S315200124F0232C417DFD77130101B913870AC33E972A
S3152001250085641C08BA97938404C32E84AA893289C8
S31520012510814526861385073D032A04003EC6EFF032
S31520012520106A1808B387E40033859740B24723AA77
S31520012530373D23AC473D23AE273DEFE0000DB247A3
S3152001254083A7873D1CC0130101478320C17E032435
S31520012550817E8324417E0329017E8329C17D032A2D
S31520012560817D832A417D1301017F828039714AD879
S315200125702EC62A896C00680826DA06DEB284EFF0B8
S31520012580F04165E17247E1679387076A63E2E70EE7
S31520012590131527003A950A0522DCEFF0E072232A6B
S315200125A0A9022A8479C9F2474ED652D456D2232873
S315200125B0F9028149014A854AF9C74E9426866C005B
S315200125C01305C400EFF0903DAA8726866C004A8544
S315200125D0B9E3B2471CC0F53DAA8726866C001305D0
S315200125E0040195EB1840B247998F1CC463FFFA0288
S315200125F0EFF0D03AAA87050A19EDB2471848D10952
S315200126005CC0BA973EC663E0F404F247637DFA06DE
S31520012610032449035DB76254B259225A925AF250A1
S31520012620D25442593E85216182806254F250979755
S31520012630010083A7270AB259225A925AD2544259E3
S315200126403E85216182806254F250977701009387FB
S315200126506781B259225A925AD25442593E852161F2
S315200126608280F250AA87D25442593E8521618280C6
S31520012670976701009387877D5DB76254979701001D
S3152001268083A7C70669BF6254B259225A925A814713
S3152001269079B7397126DA2EC6AA846C00280822DC7D
S315200126A006DE3284EFF0902F55E16247B7470F00DF
S315200126B09387072463EAE70A4AD801492DCF4ED6E4
S315200126C0854922866C0013055101EFF01038AA873F
S315200126D013056101A5E783055101EFF0207AAA8749
S315200126E022866C0013057101B1EBEFF03032AA8717
S315200126F001476C082685B9E38346710103466101CA
S31520012700B336D000EFE0F07CAA8722866C002685BE
S3152001271095E7F24732470509D8CB653BAA8719EDDC
S315200127207247B247544B958F1CCF63F8F902E247A3
S31520012730E369F9F8B2594259814719A04259B25968
S31520012740F2506254D2543E8521618280F250625405
S31520012750AA87D2543E85216182804259B2599797E0
S31520012760010083A727F7E9BF9767010093870771C0
S31520012770C1BF5D7186C62EC663F6C504A2C4CAC092
S315200127804EDEA6C232842A89854922866C0013052B
S31520012790F101EFF0B027AA8705E922866C004810DF
S315200127A0EFF0D01FAA870DE18347F101B24463857B
S315200127B037039257A6973EC6E3E987FC26449644FB
S315200127C00649F259814729A0264496440649F259D9
S315200127D0B6403E856161828022866C002810EFF02A
S315200127E0F01BAA8775F12257B7470F009387072455
S315200127F063EBE70652DC014A21CF22866C00681082
S31520012800EFF0D019AA8722866C000810A1E7EFF015
S31520012810102AAA8721E132578326090202559317E6
S315200128204700BA978A07637ED70003278902BA979A
S3152001283003D7470219E70547C8CB2392E70201458B
S3152001284002D0EFF0A04FA25702D0050AE367FAFAA9
S31520012850625A85B72644B64096440649F259625AC9
S315200128603E8561618280264496440649F2599767DE
S3152001287001009387E761A9BF797126D22EC6AA8462
S315200128806C00680822D44AD006D63289EFF030226D
S315200128902A8415E572459765010093856560EFF0F9
S315200128A010330DC5DC407245DC4F81CB3246AA85FB
S315200128B0CA862685829705E17245EFF02048B250F7
S315200128C0228522549254025945618280B2454A8614
S315200128D02685453575D12A84DDB7AE873147B28540
S315200128E0636CF7008A07177701001307E7E2BA97A7
S315200128F09C4399C33696828717950100032545DFA8
S315200129008280397126DAAA841305800722DC4AD807
S315200129104ED652D406DE2E8A3284B689EFF0C03ADC
S315200129202A89630F0510976701009387E7571CC90A
S31520012930A299FD5744C15CD500C5232635014E8693
S315200129400C08480822C8EFF0405DAA8461E94E864A
S315200129500C082808EFF0605CAA8469E15247B76742
S31520012960736D938707106313F70E624785476315C7
S31520012970F70EC247014463FF370756D25AD0B14AF0
S31520012980179B0100130BCBD64E860C081305F100BD
S31520012990EFF0D007AA8455E10347F10097760100AD
S315200129A0938686D72D4629EB4E860C086808EFF0CC
S315200129B0E07EAA8459E1C24572462E9663E4C90A8D
S315200129C08347F10083240B0063EDFA008A0797768B
S315200129D00100938666D4BE969C4281C74A8582971A
S315200129E0AA84A1ECC2477247BA973EC8E3EE37F9EB
S315200129F0925A025B81443DA0B387860083C7470371
S31520012A0005041374F40FE381E7FAE37786FE9794BE
S31520012A10010083A4E4CC925A025BE9DC4A85EFE00B
S31520012A2050410149F250625423202A01B259425998
S31520012A30225A2685D25421618280925A025BF9BF9D
S31520012A409794010083A484CAF1F86DB79794010085
S31520012A5083A444C9E1F479BF9794010083A4C4C82F
S31520012A60D5FC49BF9794010083A4C4C7925A025B3F
S31520012A70D5F449B718410323450021050A072E97A6
S31520012A80832807000147B386D84093B616000283F0
S31520012A9014418328450031058A068A0833871501A2
S31520012AA0AE960323070094428328C5FF0147B386C8
S31520012AB0664093B61600828883280500032E4500BA
S31520012AC021058A0833831501832803000323430044
S31520012AD0B3C8D8003343E300B3E8680093B61800BF
S31520012AE00147028E83280500544131058A088A064A
S31520012AF03387D500AE980323070083A608005843E1
S31520012B0083A84800B3C666000323C5FF33C7E80080
S31520012B10D98E93B616000147028318410323450037
S31520012B2021050A072E97832807000147B386D84037
S31520012B30B336D000028314418328450031058A0625
S31520012B408A0833871501AE9603230700944283280A
S31520012B50C5FF0147B3866640B336D00082888328F5
S31520012B600500032E450021058A0833831501832894
S31520012B70030003234300B3C8D8003343E300B3E87B
S31520012B806800B33610010147028E8328050054419F
S31520012B9031058A088A063387D500AE9803230700B4
S31520012BA083A60800584383A84800B3C666000323BA
S31520012BB0C5FF33C7E800D98EB336D000014702835B
S31520012BC018418328450021050A072E97032307006C
S31520012BD00147B3A66600828818418328450021054E
S31520012BE00A072E97032307000147B326D3008288BD
S31520012BF014418328450031058A068A083387150141
S31520012C00AE9603A3060014438328C5FF0147B3A646
S31520012C1066008288832805003E83854E8A08AE9801
S31520012C2003AE48006345C701630BEE00814E83283E
S31520012C3045009A8793F61E0001472105828883A7BE
S31520012C400800E3E6F6FEDDB7832805003E83854EC0
S31520012C508A08AE9803AE48006345EE00630BEE008A
S31520012C60814E832845009A8793F61E000147210548
S31520012C70828883A70800E3E6D7FEDDB7832805000F
S31520012C8058413E838A080A07AE982E9783AE48009C
S31520012C90032E4700054F814F6346DE01638BCE012C
S31520012CA0014F814F832885009A87FA867E873105D1
S31520012CB0828883A608001C43E3E6D7FED5B71441D4
S31520012CC08328450031058A068A0833871501AE9681
S31520012CD003A3060014438328C5FF0147B326D30067
S31520012CE082881841832845003E830A078A082E9741
S31520012CF0AE9883AE4800032E4700054F814F6346A9
S31520012D00DE01638BCE01014F814F832885009A878F
S31520012D10FA867E873105828883A608001C43E3E66E
S31520012D20D7FED5B718410323450021050A072E975B
S31520012D30832807000147B3A6D80093C6160002834D
S31520012D4018410323450021050A072E9783280700EA
S31520012D500147B3A6160193C61600028314418328A0
S31520012D60450031058A068A0833871501AE96032365
S31520012D70070094428328C5FF0147B3A6660093C680
S31520012D8016008288832805003E83054E8A08AE9860
S31520012D9083AE480063C0EE02638AEE0083284500B5
S31520012DA09A8793761E0001472105828883A708000A
S31520012DB0E3F6D7FE83284500014E9A8793761E00B7
S31520012DC0014721058288832805003E83054E8A080E
S31520012DD0AE9883AE48006340D703638AEE0083280A
S31520012DE045009A8793761E0001472105828883A78D
S31520012DF00800E3F6F6FE83284500014E9A8793766E
S31520012E001E000147210582881841832845003E83FB
S31520012E100A078A082E97AE9883AE4800032E4700EC
S31520012E20054F814F6340DE036389CE0183288500E8
S31520012E309A87FA867E873105828883A608001C43F5
S31520012E40E3F6D7FE83288500014F814F9A87FA86BC
S31520012E507E873105828814418328450031058A06FB
S31520012E608A0833871501AE960323070094428328E7
S31520012E70C5FF0147B326D30093C61600828883284F
S31520012E80050058413E838A080A07AE982E9783AEDD
S31520012E904800032E4700054F814F6340DE036389B7
S31520012EA0CE01832885009A87FA867E873105828816
S31520012EB083A608001C43E3F6D7FE83288500014F2D
S31520012EC0814F9A87FA867E87310582881841832821
S31520012ED0450021050A072E97032307000147B3B6AC
S31520012EE06600828818418328450021050A072E9706
S31520012EF0032307000147B336D30082881441832870
S31520012F00450031058A068A0833871501AE9603A343
S31520012F10060014438328C5FF0147B3B6660082889D
S31520012F20832805003E83854E8A08AE9803AE480065
S31520012F306365C701630BEE00814E832845009A879E
S31520012F4093F61E0001472105828883A70800E3E640
S31520012F50F6FEDDB7832805003E83854E8A08AE98A6
S31520012F6003AE48006365EE00630BEE00814E8328B5
S31520012F7045009A8793F61E0001472105828883A77B
S31520012F800800E3E6D7FEDDB78328050058413E83D6
S31520012F908A080A07AE982E9783AE4800032E47006B
S31520012FA0054F814F6366DE01638BCE01014F814F51
S31520012FB0832885009A87FA867E873105828883A6AB
S31520012FC008001C43E3E6D7FED5B714418328450004
S31520012FD031058A068A0833871501AE9603A30600B2
S31520012FE014438328C5FF0147B336D300828818418D
S31520012FF0832845003E830A078A082E97AE9883AE1A
S315200130004800032E4700054F814F6366DE01638B1F
S31520013010CE01014F814F832885009A87FA867E87C4
S315200130203105828883A608001C43E3E6D7FED5B77F
S3152001303018410323450021050A072E9783280700F7
S315200130400147B3B6D80093C616000283184103235D
S31520013050450021050A072E97832807000147B3B6A5
S31520013060160193C6160002831441832845003105B3
S315200130708A068A0833871501AE96032307009442F0
S315200130808328C5FF0147B3B6660093C6160082881A
S31520013090832805003E83054E8A08AE9883AE4800F4
S315200130A063E0EE02638AEE00832845009A879376D1
S315200130B01E0001472105828883A70800E3F6D7FE73
S315200130C083284500014E9A8793761E0001472105E4
S315200130D08288832805003E83054E8A08AE9883AEF2
S315200130E048006360D703638AEE00832845009A87E8
S315200130F093761E0001472105828883A70800E3F6FF
S31520013100F6FE83284500014E9A8793761E000147D5
S31520013110210582881841832845003E830A078A08AB
S315200131202E97AE9883AE4800032E4700054F814F58
S315200131306360DE036389CE01832885009A87FA8638
S315200131407E873105828883A608001C43E3F6D7FED5
S3152001315083288500014F814F9A87FA867E8731051C
S31520013160828814418328450031058A068A083387D7
S315200131701501AE960323070094428328C5FF014714
S31520013180B336D30093C6160082888328050058419A
S315200131903E838A080A07AE982E9783AE4800032EEF
S315200131A04700054F814F6360DE036389CE01832883
S315200131B085009A87FA867E873105828883A608004C
S315200131C01C43E3F6D7FE83288500014F814F9A875A
S315200131D0FA867E8731058288184101114EC6C28939
S315200131E022CC4AC82A842E890A073E85CE8506CE58
S315200131F026CA52C456C2B304E9003E8AB28AEF50A7
S31520013200C179AA858840EF407135832844009336D9
S315200132101500130584006244F240D2444E88D287B9
S31520013220B249224A5686CA85924A424901470561D0
S3152001323082881841544101110A078A062E97AE96B3
S3152001324022CC26CA2A84AE8408438C424AC84EC65A
S3152001325052C406CE32893E8AC289EF403130832854
S315200132608400933615001305C4006244F2404E884B
S31520013270D287B249224A4A86A6854249D244014783
S31520013280056182881841011122CC0A072E9726CA88
S315200132902A84AE8408434C434EC6BE8952C4C28694
S315200132A0328A4E864AC806CE4289EF30E13A8328D1
S315200132B0440093361500130584006244F2404A887F
S315200132C0CE874249B2495286A685224AD24401472F
S315200132D0056182881441584101118A060A072E97F1
S315200132E0AE9622CC26CA4AC82A84AE848842CC42CB
S315200132F03289544310434EC652C406CE3E8AC289F1
S31520013300EF30813583288400933615001305C400D8
S315200133106244F2404E88D287B249224A4A86A6851D
S315200133204249D244014705618288184101114EC69E
S31520013330C28922CC4AC82A842E890A073E85CE858F
S3152001334006CE26CA52C456C2B304E9003E8AB28AC0
S31520013350EF50A164AA858840EF405120832844007C
S31520013360B336A000130584006244F240D2444E884D
S31520013370D287B249224A5686CA85924A424901478C
S31520013380056182881841544101110A078A062E9740
S31520013390AE9622CC26CA2A84AE8408438C424AC8D9
S315200133A04EC652C406CE32893E8AC289EF40111BCF
S315200133B083288400B336A0001305C4006244F2407A
S315200133C04E88D287B249224A4A86A6854249D244A4
S315200133D00147056182881841011122CC0A072E97DF
S315200133E026CA2A84AE8408434C434EC6BE8952C49B
S315200133F0C286328A4E864AC806CE4289EF30C12518
S3152001340083284400B336A000130584006244F240A9
S315200134104A88CE874249B2495286A685224AD24453
S315200134200147056182881441584101118A060A071C
S315200134302E97AE9622CC26CA4AC82A84AE848842C2
S31520013440CC423289544310434EC652C406CE3E8ADC
S31520013450C289EF30612083288400B336A00013058A
S31520013460C4006244F2404E88D287B249224A4A8633
S31520013470A6854249D24401470561828801114EC67B
S31520013480BE8922CC26CA2A84AE844E85C28506CE22
S315200134904AC852C44289328AEF50215018400A073D
S315200134A026970C43EF403118832844009356F54163
S315200134B0130584006244F2404A88CE874249B249C4
S315200134C05286A685224AD244FD8201470561828819
S315200134D001114EC6BE8922CC26CA2A84AE844E85C7
S315200134E0C28506CE4AC852C44289328AEF50E14A81
S315200134F018400A0726970C43EF40910B8328440076
S31520013500B326A000130584006244F2404A88CE8780
S315200135104249B2495286A685224AD24401470561CB
S3152001352082881841544101110A078A062E97AE96C0
S3152001353022CC26CA2A84AE8408438C424AC84EC667
S3152001354052C406CE32893E8AC289EF40710683284B
S315200135508400B326A0001305C4006244F2404E88BD
S31520013560D287B249224A4A86A6854249D244014790
S31520013570056182881841011122CC0A072E9726CA95
S315200135802A84AE8408434C434EC6BE8952C4C286A1
S31520013590328A4E864AC806CE4289EF308112832866
S315200135A04400B326A000130584006244F2404A88F1
S315200135B0CE874249B2495286A685224AD24401473C
S315200135C0056182881841011122CC0A072E9726CA45
S315200135D02A84AE8408434C434EC6BE8952C4C28651
S315200135E0328A4E864AC806CE4289EF302117832871
S315200135F044009356F541130584006244F2404A88FB
S31520013600CE874249B2495286A685224AD244FD82B4
S315200136100147056182881441584101118A060A072A
S315200136202E97AE9622CC26CA4AC82A84AE848842D0
S31520013630CC423289544310434EC652C406CE3E8AEA
S31520013640C289EF30010883288400B326A000130520
S31520013650C4006244F2404E88D287B249224A4A8641
S31520013660A6854249D24401470561828818415441C1
S3152001367001110A078A062E97AE9622CC26CA2A84DB
S31520013680AE8408438C424AC84EC652C406CE3289FD
S315200136903E8AC289EF402179832884009356F541D9
S315200136A01305C4006244F2404E88D287B249224AA9
S315200136B04A86A6854249D244FD8201470561828810
S315200136C01441584101118A060A072E97AE9622CC3B
S315200136D026CA4AC82A84AE848842CC4232895443B7
S315200136E010434EC652C406CE3E8AC289EF30010728
S315200136F0832884009356F5411305C4006244F240A1
S315200137004E88D287B249224A4A86A6854249D24460
S31520013710FD8201470561828801114EC6BE8922CCF0
S3152001372026CA2A84AE844E85C28506CE4AC852C48C
S315200137304289328AEF50612618400A0726970C43A0
S31520013740EF40616E832844009326150013058400FB
S315200137506244F2404A88CE874249B2495286A685BA
S31520013760224AD24401470561828801114EC6BE898B
S3152001377022CC26CA2A84AE844E85C28506CE4AC864
S3152001378052C44289328AEF50412118400A072697AE
S315200137900C43EF40E161832844009356F54113051C
S315200137A084006244F2404A88CE874249B249528611
S315200137B0A685224AD24493C6F6FFFD8201470561BA
S315200137C082881841544101110A078A062E97AE961E
S315200137D022CC26CA2A84AE8408438C424AC84EC6C5
S315200137E052C406CE32893E8AC289EF40615C832863
S315200137F084009356F5411305C4006244F2404E8875
S31520013800D287B249224A4A86A6854249D24493C6DC
S31520013810F6FFFD820147056182881841011122CCFC
S315200138200A072E9726CA2A84AE8408434C434EC6DD
S31520013830BE8952C4C286328A4E864AC806CE42897B
S31520013840EF203168832844009356F54113058400FF
S315200138506244F2404A88CE874249B2495286A685B9
S31520013860224AD24493C6F6FFFD820147056182882A
S315200138701841011122CC0A072E9726CA2A84AE8422
S3152001388008434C434EC6BE8952C4C286328A4E86EE
S315200138904AC806CE4289EF20716C832844009326BC
S315200138A01500130584006244F2404A88CE874249B6
S315200138B0B2495286A685224AD244014705618288A9
S315200138C01441584101118A060A072E97AE9622CC39
S315200138D026CA4AC82A84AE848842CC4232895443B5
S315200138E010434EC652C406CE3E8AC289EF20715D70
S315200138F0832884009356F5411305C4006244F2409F
S315200139004E88D287B249224A4A86A6854249D2445E
S3152001391093C6F6FFFD82014705618288184154410D
S3152001392001110A078A062E97AE9622CC26CA2A8428
S31520013930AE8408438C424AC84EC652C406CE32894A
S315200139403E8AC289EF40214E8328840093261500A2
S315200139501305C4006244F2404E88D287B249224AF6
S315200139604A86A6854249D244014705618288144187
S31520013970584101118A060A072E97AE9622CC26CAED
S315200139804AC82A84AE848842CC42328954431043A1
S315200139904EC652C406CE3E8AC289EF20315C8328A8
S315200139A08400932615001305C4006244F2404E8814
S315200139B0D287B249224A4A86A6854249D24401473C
S315200139C00561828818418328450021050A072E971B
S315200139D01843BA9613D7F6418288544183280500A5
S315200139E031058A068A0833871501AE961843944213
S315200139F08328C5FFBA9613D7F64182888328050006
S31520013A0021058A08AE9803A3080003AE4800B688AC
S31520013A109A960323C5FFB3B8160172974697028378
S31520013A2003234500184131050A030A07B388E50037
S31520013A302E93032E030083A608000327430003A326
S31520013A404800F2968328C5FF33BEC6011A9772979E
S31520013A50828818418328450021050A072E97184395
S31520013A60B306D70213D7F64182885441832805002D
S31520013A7031058A068A0833871501AE961843944282
S31520013A808328C5FFB386E60213D7F64182888328A9
S31520013A900500032E450021058A08AE9803A30800D8
S31520013AA083A848003307E302B388D802B33ED30282
S31520013AB04697B306D3027697028E58411441032FB7
S31520013AC085000A078A062E97B388D50083A60800A3
S31520013AD0832E07000323470003AE480033B7DE02D7
S31520013AE03105B308D3023303DE03B386DE029A9887
S31520013AF04697028F18418328450021050A072E97EC
S31520013B001843998E13D7F641828818418328450098
S31520013B1021050A072E971843B306D74013D7F64136
S31520013B20828854418328050031058A068A0833870D
S31520013B301501AE96184394428328C5FF998E13D753
S31520013B40F64182888328050021058A08AE9803A3B9
S31520013B50080003AE4800B688B38666400323C5FF36
S31520013B60B3B8D8003307C7413307174102838328E7
S31520013B700500032E450021058A0833831501832874
S31520013B80030003234300B386D840B3B8D8003307D4
S31520013B90E34033071741028E0323450018413105BF
S31520013BA00A030A07B388E5002E93032E030083A692
S31520013BB008000327430003A34800B306DE408328F9
S31520013BC0C5FF333EDE00330767403307C74182888E
S31520013BD018418328450021050A072E97032307004C
S31520013BE00147B3966600828818418328450021053E
S31520013BF00A072E97032307000147B316D3008288AD
S31520013C008328050054413105139328008A06B38879
S31520013C10D50033876500144303A308008328C5FF15
S31520013C200147B316D3008288832805008A08AE98F7
S31520013C3003A308001373F303930803FE63C9080063
S31520013C4033971601832845008146210582887D4EBA
S31520013C5093D81600330E6E40B3D8C80133176700C8
S31520013C6033E7E80083284500B3966600210582885C
S31520013C708328050093F6F603138306FE8A08AE9879
S31520013C80634B030003A708008328450081463317A9
S31520013C9067002105828803A3080003A748007D4EFB
S31520013CA0330EDE4093581300B3D8C8013317D7001B
S31520013CB033E7E80083284500B316D300210582881F
S31520013CC01841832845000A072E97032307008A08EF
S31520013CD0AE981373F303130E03FE634B0E0003A773
S31520013CE008008328850081463317C701310582885C
S31520013CF083A6080003A748007D4E93D81600330EED
S31520013D006E40B3D8C8013317670033E7E80083282C
S31520013D108500B396660031058288184183284500BF
S31520013D2021050A072E971843B3D6E64013D7F64145
S31520013D30828818418328450021050A072E971843B2
S31520013D40B356D74013D7F6418288544183280500BC
S31520013D5031058A068A0833871501AE96184394429F
S31520013D608328C5FFB3D6E64013D7F6418288832838
S31520013D7005008A08AE9803A308001373F30393087A
S31520013D8003FE63C90800B3561741832845007D8782
S31520013D90210582887D4E93181700330E6E40B39805
S31520013DA0C801B3D66600B3E6D80083284500335749
S31520013DB06740210582888328050013F3F6039306BD
S31520013DC003FE8A08AE9803A7480063C90600832824
S31520013DD04500B356D74021057D87828883A60800F2
S31520013DE07D4E93181700330E6E40B398C801B3D693
S31520013DF06600B3E6D800832845003357674021057E
S31520013E0082881841832845000A072E970323070035
S31520013E108A08AE981373F303930603FE03A748009B
S31520013E2063C9060083288500B356D74031057D87AF
S31520013E30828883A608007D4E93181700330E6E40A4
S31520013E40B398C801B3D66600B3E6D80083288500A7
S31520013E50335767403105828818418328450021055B
S31520013E600A072E97032307000147B3D666008288E7
S31520013E7018418328450021050A072E9703230700A9
S31520013E800147B356D3008288832805005441310562
S31520013E90139328008A06B388D50033876500144317
S31520013EA003A308008328C5FF0147B356D3008288A0
S31520013EB0832805008A08AE9803A308001373F30329
S31520013EC0930803FE63C90800B356170183284500EA
S31520013ED00147210582887D4E93181700330E6E40C7
S31520013EE0B398C801B3D66600B3E6D8008328450047
S31520013EF033576700210582888328050013F3F603CB
S31520013F00130E03FE8A08AE98634B0E0083A6480063
S31520013F10832845000147B3D6C6012105828803A718
S31520013F20480083A608007D4E93181700330E6E4075
S31520013F30B398C801B3D66600B3E6D80083284500F6
S31520013F4033576700210582881841832845000A07CF
S31520013F502E97032307008A08AE981373F303130ED3
S31520013F6003FE634B0E0083A6480083288500014784
S31520013F70B3D6C6013105828803A7480083A6080067
S31520013F807D4E93181700330E6E40B398C801B3D6F1
S31520013F906600B3E6D80083288500335767003105CC
S31520013FA0828818418328450021050A072E97032375
S31520013FB007000147B376D300828814418328450040
S31520013FC031058A068A0833871501AE9603A30600B2
S31520013FD014438328C5FF0147B376D300828818414D
S31520013FE08328450021050A072E9703230700014749
S31520013FF0B366D300828814418328450031058A0699
S315200140008A0833871501AE9603A306001443832835
S31520014010C5FF0147B366D30082881841832845002E
S3152001402021050A072E97032307000147B346D3002C
S31520014030828814418328450031058A068A083387F8
S315200140401501AE9603A3060014438328C5FF014735
S31520014050B346D30082888328050003234500210522
S315200140608A08AE9803AE080083A84800B376DE001E
S3152001407033F7E80002831841544131050A078A06BD
S315200140802E97B388D500032E070083A608000323A5
S31520014090470003A748008328C5FFB376DE003377A0
S315200140A0E3008288832805000323450021058A0829
S315200140B0AE9803AE080083A84800B366DE0033E756
S315200140C0E80002831841544131050A078A062E97D2
S315200140D0B388D500032E070083A6080003234700D3
S315200140E003A748008328C5FFB366DE003367E300D4
S315200140F08288832805000323450021058A08AE9876
S3152001410003AE080083A84800B346DE0033C7E800A3
S3152001411002831841544131050A078A062E97B3882E
S31520014120D500032E070083A608000323470003A713
S3152001413048008328C5FFB346DE003347E300828863
S3152001414083280500011122CC4AC88A082A842E898F
S315200141503E85C28506CE26CA4EC652C456C2B30471
S315200141601901B289B68A3A8AEF4031038C40EF3081
S31520014170A168EF40017983284400AA8713058400AA
S315200141806244F240D2442E88D6865287924A224AE7
S315200141904E86CA85B249424905618288011122CCDF
S315200141A01C412A8448418A07AE970A052E9526CABC
S315200141B0AE840C41884306CE4AC84EC652C43289C3
S315200141C0368ABA89EF304163EF40A1738328840090
S315200141D0AA871305C4006244F2402E88D2864E87F0
S315200141E0224AB2494A86A6854249D2440561828835
S315200141F0011122CC2A8408414AC852C40A052E95A7
S315200142003289368A1041544126CA3E85AE84C285FA
S315200142104EC606CEBA89EF10D11083284400AA874C
S31520014220130584006244F2402E88D2864E87224AA4
S31520014230B2494A86A6854249D2440561828801113E
S3152001424022CC2A845C40084126CA8A070A05AE97F1
S315200142502E954AC852C4AE8432894C419043368A3F
S315200142600841D4434EC606CEBA89EF10910B832856
S315200142708400AA871305C4006244F2402E88D286A0
S315200142804E87224AB2494A86A6854249D2440561C9
S31520014290828883280500011122CC4AC88A082A84EB
S315200142A02E893E85C28506CE26CA4EC652C456C220
S315200142B0B3041901B289B68A3A8AEF40016E8C405D
S315200142C0EF30D13DEF40E16383284400AA871305EF
S315200142D084006244F240D2442E88D6865287924A7E
S315200142E0224A4E86CA85B249424905618288011110
S315200142F022CC1C412A8448418A07AE970A052E956D
S3152001430026CAAE840C41884306CE4AC84EC652C43C
S315200143103289368ABA89EF307138EF40815E832837
S315200143208400AA871305C4006244F2402E88D286EF
S315200143304E87224AB2494A86A6854249D244056118
S315200143408288011122CC2A8408414AC852C40A050E
S315200143502E953289368A1041544126CA3E85AE842D
S31520014360C2854EC606CEBA89EF20E148832844008D
S31520014370AA87130584006244F2402E88D2864E878E
S31520014380224AB2494A86A6854249D2440561828893
S31520014390011122CC2A845C40084126CA8A070A05D3
S315200143A0AE972E954AC852C4AE8432894C41904369
S315200143B0368A0841D4434EC606CEBA89EF20A14398
S315200143C083288400AA871305C4006244F2402E88FC
S315200143D0D2864E87224AB2494A86A6854249D24486
S315200143E005618288011122CC26CA2A84AE843E85A3
S315200143F0C28506CE4AC84EC652C43289368ABA8981
S31520014400EF40A1591C408A07A6978C43EF30B14C47
S31520014410EF40214F83284400AA8713058400624474
S31520014420F2402E88D2864E87224AB2494A86A685EE
S315200144304249D2440561828883280500011122CC94
S315200144404AC88A082A842E893E85C28506CE26CA6E
S315200144504EC652C456C2B3041901B289B68A3A8AE3
S31520014460EF40A153AA858840EF30F146EF406149DC
S3152001447083284400AA87130584006244F240D2446B
S315200144802E88D6865287924A224A4E86CA85B249B4
S31520014490424905618288011122CC5C412A84084166
S315200144A08A07AE970A052E9526CAAE840C41884303
S315200144B006CE4AC84EC652C43289368ABA89EF30E8
S315200144C09141EF40014483288400AA871305C40043
S315200144D06244F2402E88D2864E87224AB2494A86C3
S315200144E0A6854249D24405618288011122CC2A84BB
S315200144F008414AC852C40A052E953289368A104186
S31520014500544126CA3E85AE84C2854EC606CEBA8998
S31520014510EF20017583284400AA871305840062448D
S31520014520F2402E88D2864E87224AB2494A86A685ED
S315200145304249D24405618288011122CC2A8408414C
S3152001454026CAAE840A052E954C4108414AC852C452
S315200145503289368A3E86C2864EC606CEBA89EF2073
S31520014560217083284400AA87130584006244F240FF
S315200145702E88D2864E87224AB2494A86A685424944
S31520014580D24405618288011122CC2A841C404841EB
S3152001459026CA8A070A05AE972E954AC852C4AE8402
S315200145A032894C419043368A0841D4434EC606CEC1
S315200145B0BA89EF20E16A83288400AA871305C400FB
S315200145C06244F2402E88D2864E87224AB2494A86D2
S315200145D0A6854249D24405618288011122CC26CA88
S315200145E02A84AE843E85C28506CE4AC84EC652C4AA
S315200145F03289368ABA89EF40413A1C408A07A69702
S315200146008C43EF30C150EF40C12F83284400AA8745
S31520014610130584006244F2402E88D2864E87224AB0
S31520014620B2494A86A6854249D244056182888328B1
S315200146300500011122CC4AC88A082A842E893E8582
S31520014640C28506CE26CA4EC652C456C2B304190125
S31520014650B289B68A3A8AEF404134AA858840EF303A
S31520014660014BEF40012A83284400AA8713058400C1
S315200146706244F240D2442E88D6865287924A224AF2
S315200146804E86CA85B249424905618288011122CCEA
S315200146905C412A8408418A07AE970A052E9526CAC7
S315200146A0AE840C41884306CE4AC84EC652C43289CE
S315200146B0368ABA89EF30A145EF40A12483288400A8
S315200146C0AA871305C4006244F2402E88D2864E87FB
S315200146D0224AB2494A86A6854249D2440561828840
S315200146E0011122CC2A8408414AC852C40A052E95B2
S315200146F03289368A1041544126CA3E85AE84C28506
S315200147004EC606CEBA89EF10F12083284400AA8727
S31520014710130584006244F2402E88D2864E87224AAF
S31520014720B2494A86A6854249D24405618288011149
S3152001473022CC2A84084126CAAE840A052E954C41EC
S3152001474008414AC852C43289368A3E86C2864EC636
S3152001475006CEBA89EF10111C83284400AA871305B7
S3152001476084006244F2402E88D2864E87224AB2497C
S315200147704A86A6854249D24405618288011122CC06
S315200147802A841C40484126CA8A070A05AE972E95D7
S315200147904AC852C4AE8432894C419043368A084174
S315200147A0D4434EC606CEBA89EF10D116832884008B
S315200147B0AA871305C4006244F2402E88D2864E870A
S315200147C0224AB2494A86A6854249D244056182884F
S315200147D018418328450021050A072E9718437D8B0A
S315200147E03303E0403397E600B3D66600D98E0147FE
S315200147F082881841FD8A3303D0400A072E97184331
S31520014800832845002105B316D70033576700D98E73
S315200148100147828818418328450031050A072E97CA
S315200148208A081843B386150194427D8B3303E040F1
S315200148308328C5FF3397E600B3D66600D98E014794
S31520014840828818418328450021050A072E97184397
S315200148507D8B3303E04033D7E600B3966600D98ECD
S31520014860014782881841FD8A3303D0400A072E97D3
S315200148701843832845002105B356D700331767000F
S31520014880D98E0147828818418328450031050A07B8
S315200148902E978A081843B386150194427D8B3303DC
S315200148A0E0408328C5FF33D7E600B3966600D98E4C
S315200148B001478288832805008A08AE9883A80800C4
S315200148C093F8F803138308FE63480302B3081041E3
S315200148D093F8F803138E08FE33936600014F634263
S315200148E00E0483284500B356C7010147B3E6E60106
S315200148F033676700210582887D433303134113DE25
S315200149001600335E6E00339F160133131701B30869
S31520014910104193F8F80333636E00138E08FEE352B9
S315200149200EFCFD4E131E1700B38E1E41B3D6160183
S3152001493033571701331EDE0183284500B366DE0097
S31520014940B3E6E60133676700210582880323050064
S3152001495093F8F603138708FE0A032E93032F030009
S31520014960832E430063480702B308104193F8F803E6
S31520014970138E08FE3313EF00814F63420E04832802
S315200149804500B3D6CE010147B3E6F601336767008A
S3152001499021058288FD46B386164133931E01B31F36
S315200149A01F01B308104113571F0093F8F80333571B
S315200149B0D700138E08FE33636700E3520EFCFD46D3
S315200149C0B386164113971E003317D700B3561F011E
S315200149D0D98E33D71E0183284500B3E6F601336706
S315200149E06700210582881841032345000A072E976F
S315200149F0832807000A032E9393F8F803138708FEEA
S31520014A00032F0300832E430063480702B308104196
S31520014A1093F8F803138E08FE3313EF00814F634298
S31520014A200E0483288500B3D6CE010147B3E6DF0005
S31520014A303367E30031058288FD46B38616413393F9
S31520014A401E01B31F1F01B308104113571F0093F80E
S31520014A50F8033357D700138E08FE33636700E352FA
S31520014A600EFCFD46B386164113971E003317D70059
S31520014A70B3561F01D98E33D71E0183288500B3E68D
S31520014A80DF003367E30031058288832805008A0821
S31520014A90AE9883A8080093F8F803138E08FE63489E
S31520014AA00E02B308104193F8F803138308FE335E10
S31520014AB0C701814E6342030483284500339766006C
S31520014AC08146B3E6C6013367D701210582887D4E2B
S31520014AD0330E1E41131317003313C301B35E17019F
S31520014AE033DE1601B308104193F8F803336EC30180
S31520014AF0138308FEE35203FC7D4F13D31600330FB5
S31520014B001F4133171701B39616013353E301832847
S31520014B1045003367E300B3E6C6013367D7012105B4
S31520014B208288184193F8F603138E08FE0A072E97FA
S31520014B301443832E470063480E02B308104193F8AD
S31520014B40F803138308FE33DECE01014F63420304CB
S31520014B5083284500339766008146B3E6C60133674D
S31520014B60E701210582887D433303134133DE160194
S31520014B7033DF1E01B308104113971E0093F8F80383
S31520014B8033176700138308FE336EC701E35203FC14
S31520014B907D473307174113D316003353E300B396EA
S31520014BA0160133971E01832845003367E300B3E6D8
S31520014BB0C6013367E7012105828818410A07B386B2
S31520014BC0E50083A80600584193F8F8030A072E97B3
S31520014BD0138E08FE1443832E470063480E02B30842
S31520014BE0104193F8F803138308FE33DECE01014FFB
S31520014BF06342030483288500339766008146B366A2
S31520014C00DE003367EF00310582887D43330313418C
S31520014C1033DE160133DF1E01B308104113971E0040
S31520014C2093F8F80333176700138308FE336EC70121
S31520014C30E35203FC7D473307174113D31600335341
S31520014C40E300B396160133971E0183288500336747
S31520014C50E300B366DE003367EF0031058288011178
S31520014C6022CC26CA2A84AE843E85C28506CE4AC86F
S31520014C704EC652C43289368ABA89EF301152B707E5
S31520014C8000803D8DEF30F14783280400AA87130564
S31520014C9044006244F2402E88D2864E87224AB24987
S31520014CA04A86A6854249D244056182881C41011162
S31520014CB022CC8A07AE972A848843B707008026CA62
S31520014CC03D8D4AC84EC652C406CEAE843289368A36
S31520014CD0BA89EF30114383284400AA87130584003B
S31520014CE06244F2402E88D2864E87224AB2494A86AB
S31520014CF0A6854249D24405618288B708008033C817
S31520014D00080183280500110582881C4103234500DB
S31520014D1021058A07AE9703A8470003AE0700B70708
S31520014D200080B347F800BE884688F287028383282D
S31520014D30050093B61600014711058288184183287C
S31520014D40450021050A072E971443014793B61600FD
S31520014D50828883280500D98E93B61600014711054E
S31520014D60828818418328450021050A072E97144376
S31520014D70032347000147B3E6660093B616008288EF
S31520014D80832805000147110582881841832845009B
S31520014D9021050A072E971443014782888328050097
S31520014DA0E206E18613D7F641110582881841832848
S31520014DB0450021050A072E978306070013D7F641DA
S31520014DC0828883280500C206C18613D7F6411105BC
S31520014DD0828818418328450021050A072E978316C4
S31520014DE0070013D7F64182881841832845002105FB
S31520014DF00A072E978306070013D7F64182881841A2
S31520014E008328450021050A072E978316070013D705
S31520014E10F64182888328050013D7F6411105828839
S31520014E2018418328450021050A072E97144313D7D5
S31520014E30F641828818418328450021050A072E97C5
S31520014E40144313D7F641828818418328450021054A
S31520014E500A072E97144301478288011122CC26CABC
S31520014E602A84AE843E85C28506CE4AC84EC652C421
S31520014E703289368ABA89EF305132EF309128832828
S31520014E800400AA87130544006244F2402E88D28684
S31520014E904E87224AB2494A86A6854249D2440561AD
S31520014EA082881C41011122CC8A07AE9726CA2A8400
S31520014EB0AE848843CC4306CE4AC84EC652C43289F4
S31520014EC0368ABA89EF30712DEF30B1238328440019
S31520014ED0AA87130584006244F2402E88D2864E8723
S31520014EE0224AB2494A86A6854249D2440561828828
S31520014EF01C41011122CC8A07AE972A84884326CAEF
S31520014F004AC84EC652C406CEAE843289368ABA897A
S31520014F10EF30311F83284400AA8713058400624499
S31520014F20F2402E88D2864E87224AB2494A86A685E3
S31520014F304249D24405618288011122CC2A843685D0
S31520014F4026CA4AC84EC652C406CEB6842E89B2890E
S31520014F503A8AEF20E14183280400AA8713054400F9
S31520014F606244F2402E88A6865287D244224A4E8631
S31520014F70CA85B2494249056182888328050079712B
S31520014F8022D48A082A84368526D24AD04ECE52CCBD
S31520014F9056CA5AC85EC606D6B3841501B6892E8965
S31520014FA0328ABA8ABE8B428BEF20813C8328440009
S31520014FB088C0130584002254CCC0B25092545A881A
S31520014FC0DE87424BB24BCE865687F249D24A52866B
S31520014FD0CA85624A0259456182881C41011122CC47
S31520014FE08A07AE972A84884326CA4AC84EC652C41F
S31520014FF006CEAE843289368ABA89EF206137832874
S315200150004400AA87130584006244F2402E88D28682
S315200150104E87224AB2494A86A6854249D24405612B
S315200150208288797122D42A84084126D2AE840A053F
S315200150304C40269508418A054AD04ECE52CC56CAB6
S315200150405AC85EC606D63389B400B289B68A3A8A68
S31520015050BE8B428BEF20C131832884002320A900F7
S315200150601305C40022542322B900B25002595A888A
S31520015070DE87424BB24BD6865287D24A624A4E8649
S31520015080A685F249925445618288011122CC2A844F
S31520015090368526CA4AC84EC652C406CEB6842E893D
S315200150A0B2893A8AEF20413383280400AA8713055F
S315200150B044006244F2402E88A6865287D244224A70
S315200150C04E86CA85B24942490561828883280500F0
S315200150D0797122D48A082A84368526D24AD04ECEA0
S315200150E052CC56CA5AC85EC606D6B3841501B689AD
S315200150F02E89328ABA8ABE8B428BEF20E12D8328F4
S31520015100440088C0130584002254CCC0B250925466
S315200151105A88DE87424BB24BCE865687F249D24A0F
S315200151205286CA85624A0259456182881C4101110B
S3152001513022CC8A07AE972A84884326CA4AC84EC6F5
S3152001514052C406CEAE843289368ABA89EF20C12866
S3152001515083284400AA87130584006244F2402E88DE
S31520015160D2864E87224AB2494A86A6854249D244E8
S3152001517005618288797122D42A84084126D2AE8497
S315200151800A054C40269508418A054AD04ECE52CC76
S3152001519056CA5AC85EC606D63389B400B289B68ABB
S315200151A03A8ABE8B428BEF20212383288400232039
S315200151B0A9001305C40022542322B900B250025972
S315200151C05A88DE87424BB24BD6865287D24A624AEA
S315200151D04E86A685F249925445618288011122CCD8
S315200151E04EC62A84AE893685BA8526CA4AC852C48D
S315200151F006CE3689BA84328AEF20A1348328040068
S31520015200AA87130544006244F2402E88CA8626875F
S315200152104249D2445286CE85224AB24905618288C4
S3152001522083280500797122D44AD02A842E898A08B6
S315200152303685BA8526D24ECE52CC56CA5AC85EC6B5
S3152001524006D6B3041901368ABA89B28ABE8B428B35
S31520015250EF20212F8328440088C01305840022547F
S31520015260CCC0B25092545A88DE87424BB24BD2867A
S315200152704E87624AF2495686CA85D24A0259456103
S3152001528082881C41011122CC8A07AE9726CA2A841C
S31520015290AE848843CC434AC84EC652C406CE328910
S315200152A0368ABA89EF20E12983284400AA87130583
S315200152B084006244F2402E88D2864E87224AB24921
S315200152C04A86A6854249D24405618288797122D4CB
S315200152D02A8408418328440026D20A052E95AE84C5
S315200152E04C4108418A084AD04ECE52CC56CA5AC899
S315200152F05EC606D633891401B289B68A3A8ABE8B2E
S31520015300428BEF200124832884002320A900130542
S31520015310C40022542322B900B25002595A88DE878A
S31520015320424BB24BD6865287D24A624A4E86A685D0
S31520015330F249925445618288011122CC4EC62A84B3
S31520015340AE893685BA8526CA4AC852C406CE36895A
S31520015350BA84328AEF20013683280400AA871305EE
S3152001536044006244F2402E88CA8626874249D244A6
S315200153705286CE85224AB249056182888328050054
S31520015380797122D44AD02A842E898A083685BA850B
S3152001539026D24ECE52CC56CA5AC85EC606D6B304BB
S315200153A01901368ABA89B28ABE8B428BEF208130A7
S315200153B08328440088C0130584002254CCC0B250EF
S315200153C092545A88DE87424BB24BD2864E87624A26
S315200153D0F2495686CA85D24A0259456182881C41BC
S315200153E0011122CC8A07AE9726CA2A84AE84884325
S315200153F0CC434AC84EC652C406CE3289368ABA89A9
S31520015400EF20412B83284400AA8713058400624498
S31520015410F2402E88D2864E87224AB2494A86A685EE
S315200154204249D24405618288797122D42A8408416D
S315200154308328440026D20A052E95AE844C41084184
S315200154408A084AD04ECE52CC56CA5AC85EC606D60D
S3152001545033891401B289B68A3A8ABE8B428BEF20F0
S315200154606125832884002320A9001305C400225422
S315200154702322B900B25002595A88DE87424BB24BD9
S31520015480D6865287D24A624A4E86A685F2499254D8
S3152001549045618288011122CC2A84368506CE26CA08
S315200154A04AC84EC652C4B6842E89B2893A8AEF308A
S315200154B06103EF30014583280400AA8713054400C0
S315200154C06244F2402E88A6865287D244224A4E86CC
S315200154D0CA85B249424905618288832805007971C6
S315200154E022D48A082A84368526D24AD04ECE52CC58
S315200154F056CA5AC85EC606D6B3841501B6892E8900
